{
  "_format": "hh-sol-artifact-1",
  "contractName": "Flashswap",
  "sourceName": "contracts/Flashswap.sol",
  "abi": [
    {
      "inputs": [],
      "stateMutability": "nonpayable",
      "type": "constructor"
    },
    {
      "inputs": [
        {
          "internalType": "address",
          "name": "_tokenBorrow",
          "type": "address"
        },
        {
          "internalType": "uint256",
          "name": "_amountTokenPay",
          "type": "uint256"
        },
        {
          "internalType": "address",
          "name": "_tokenPay",
          "type": "address"
        },
        {
          "internalType": "address",
          "name": "_router1",
          "type": "address"
        },
        {
          "internalType": "address",
          "name": "_router2",
          "type": "address"
        },
        {
          "internalType": "bool",
          "name": "_stable",
          "type": "bool"
        },
        {
          "internalType": "bool",
          "name": "_flashOnRouter1",
          "type": "bool"
        }
      ],
      "name": "check",
      "outputs": [
        {
          "internalType": "int256",
          "name": "",
          "type": "int256"
        },
        {
          "internalType": "uint256",
          "name": "",
          "type": "uint256"
        }
      ],
      "stateMutability": "view",
      "type": "function"
    },
    {
      "inputs": [
        {
          "internalType": "address",
          "name": "_sender",
          "type": "address"
        },
        {
          "internalType": "uint256",
          "name": "_amount0",
          "type": "uint256"
        },
        {
          "internalType": "uint256",
          "name": "_amount1",
          "type": "uint256"
        },
        {
          "internalType": "bytes",
          "name": "_data",
          "type": "bytes"
        }
      ],
      "name": "hook",
      "outputs": [],
      "stateMutability": "nonpayable",
      "type": "function"
    },
    {
      "inputs": [],
      "name": "owner",
      "outputs": [
        {
          "internalType": "address",
          "name": "",
          "type": "address"
        }
      ],
      "stateMutability": "view",
      "type": "function"
    },
    {
      "inputs": [
        {
          "internalType": "uint256",
          "name": "_maxBlockNumber",
          "type": "uint256"
        },
        {
          "internalType": "address",
          "name": "_tokenBorrow",
          "type": "address"
        },
        {
          "internalType": "uint256",
          "name": "_amountTokenPay",
          "type": "uint256"
        },
        {
          "internalType": "address",
          "name": "_tokenPay",
          "type": "address"
        },
        {
          "internalType": "address",
          "name": "_router1",
          "type": "address"
        },
        {
          "internalType": "address",
          "name": "_router2",
          "type": "address"
        },
        {
          "internalType": "address",
          "name": "_factory1",
          "type": "address"
        },
        {
          "internalType": "bool",
          "name": "_stable",
          "type": "bool"
        },
        {
          "internalType": "bool",
          "name": "_flashOnRouter1",
          "type": "bool"
        }
      ],
      "name": "start",
      "outputs": [],
      "stateMutability": "nonpayable",
      "type": "function"
    },
    {
      "inputs": [
        {
          "internalType": "address",
          "name": "_sender",
          "type": "address"
        },
        {
          "internalType": "uint256",
          "name": "_amount0",
          "type": "uint256"
        },
        {
          "internalType": "uint256",
          "name": "_amount1",
          "type": "uint256"
        },
        {
          "internalType": "bytes",
          "name": "_data",
          "type": "bytes"
        }
      ],
      "name": "uniswapV2Call",
      "outputs": [],
      "stateMutability": "nonpayable",
      "type": "function"
    }
  ],
  "bytecode": "0x6080604052348015600f57600080fd5b50336000806101000a81548173ffffffffffffffffffffffffffffffffffffffff021916908373ffffffffffffffffffffffffffffffffffffffff1602179055506142d68061005f6000396000f3fe608060405234801561001057600080fd5b50600436106100575760003560e01c806310d1e85c1461005c5780635abb6253146100785780638da5cb5b146100a95780639a7bff79146100c7578063a3f22da5146100e3575b600080fd5b61007660048036038101906100719190613443565b6100ff565b005b610092600480360381019061008d9190613503565b610113565b6040516100a09291906135cd565b60405180910390f35b6100b1610e0c565b6040516100be9190613605565b60405180910390f35b6100e160048036038101906100dc9190613443565b610e30565b005b6100fd60048036038101906100f89190613620565b610e44565b005b61010c8585858585610f19565b5050505050565b6000806000808415610788578515610456576000600167ffffffffffffffff811115610142576101416136ea565b5b60405190808252806020026020018201604052801561017b57816020015b6101686132ca565b8152602001906001900390816101605790505b50905060405180608001604052808b73ffffffffffffffffffffffffffffffffffffffff1681526020018d73ffffffffffffffffffffffffffffffffffffffff1681526020018815158152602001600073ffffffffffffffffffffffffffffffffffffffff16815250816000815181106101f8576101f7613719565b5b602002602001018190525060008973ffffffffffffffffffffffffffffffffffffffff16635509a1ac8d846040518363ffffffff1660e01b815260040161024092919061386a565b600060405180830381865afa15801561025d573d6000803e3d6000fd5b505050506040513d6000823e3d601f19601f8201168201806040525081019061028691906139cf565b905080600182516102979190613a47565b815181106102a8576102a7613719565b5b602002602001015193506000600267ffffffffffffffff8111156102cf576102ce6136ea565b5b6040519080825280602002602001820160405280156102fd5781602001602082028036833780820191505090505b5090508d8160008151811061031557610314613719565b5b602002602001019073ffffffffffffffffffffffffffffffffffffffff16908173ffffffffffffffffffffffffffffffffffffffff16815250508b8160018151811061036457610363613719565b5b602002602001019073ffffffffffffffffffffffffffffffffffffffff16908173ffffffffffffffffffffffffffffffffffffffff168152505060008a73ffffffffffffffffffffffffffffffffffffffff1663d06ca61f87846040518363ffffffff1660e01b81526004016103db929190613b2a565b600060405180830381865afa1580156103f8573d6000803e3d6000fd5b505050506040513d6000823e3d601f19601f8201168201806040525081019061042191906139cf565b905080600182516104329190613a47565b8151811061044357610442613719565b5b6020026020010151945050505050610783565b6000600267ffffffffffffffff811115610473576104726136ea565b5b6040519080825280602002602001820160405280156104a15781602001602082028036833780820191505090505b50905089816000815181106104b9576104b8613719565b5b602002602001019073ffffffffffffffffffffffffffffffffffffffff16908173ffffffffffffffffffffffffffffffffffffffff16815250508b8160018151811061050857610507613719565b5b602002602001019073ffffffffffffffffffffffffffffffffffffffff16908173ffffffffffffffffffffffffffffffffffffffff168152505060008973ffffffffffffffffffffffffffffffffffffffff1663d06ca61f8d846040518363ffffffff1660e01b815260040161057f929190613b2a565b600060405180830381865afa15801561059c573d6000803e3d6000fd5b505050506040513d6000823e3d601f19601f820116820180604052508101906105c591906139cf565b905080600182516105d69190613a47565b815181106105e7576105e6613719565b5b602002602001015193506000600167ffffffffffffffff81111561060e5761060d6136ea565b5b60405190808252806020026020018201604052801561064757816020015b6106346132ca565b81526020019060019003908161062c5790505b50905060405180608001604052808f73ffffffffffffffffffffffffffffffffffffffff1681526020018d73ffffffffffffffffffffffffffffffffffffffff1681526020018a15158152602001600073ffffffffffffffffffffffffffffffffffffffff16815250816000815181106106c4576106c3613719565b5b602002602001018190525060008a73ffffffffffffffffffffffffffffffffffffffff16635509a1ac87846040518363ffffffff1660e01b815260040161070c92919061386a565b600060405180830381865afa158015610729573d6000803e3d6000fd5b505050506040513d6000823e3d601f19601f8201168201806040525081019061075291906139cf565b905080600182516107639190613a47565b8151811061077457610773613719565b5b60200260200101519450505050505b610ded565b8515610abf576000600167ffffffffffffffff8111156107ab576107aa6136ea565b5b6040519080825280602002602001820160405280156107e457816020015b6107d16132ca565b8152602001906001900390816107c95790505b50905060405180608001604052808b73ffffffffffffffffffffffffffffffffffffffff1681526020018d73ffffffffffffffffffffffffffffffffffffffff1681526020018815158152602001600073ffffffffffffffffffffffffffffffffffffffff168152508160008151811061086157610860613719565b5b602002602001018190525060008873ffffffffffffffffffffffffffffffffffffffff16635509a1ac8d846040518363ffffffff1660e01b81526004016108a992919061386a565b600060405180830381865afa1580156108c6573d6000803e3d6000fd5b505050506040513d6000823e3d601f19601f820116820180604052508101906108ef91906139cf565b905080600182516109009190613a47565b8151811061091157610910613719565b5b602002602001015193506000600267ffffffffffffffff811115610938576109376136ea565b5b6040519080825280602002602001820160405280156109665781602001602082028036833780820191505090505b5090508d8160008151811061097e5761097d613719565b5b602002602001019073ffffffffffffffffffffffffffffffffffffffff16908173ffffffffffffffffffffffffffffffffffffffff16815250508b816001815181106109cd576109cc613719565b5b602002602001019073ffffffffffffffffffffffffffffffffffffffff16908173ffffffffffffffffffffffffffffffffffffffff168152505060008b73ffffffffffffffffffffffffffffffffffffffff1663d06ca61f87846040518363ffffffff1660e01b8152600401610a44929190613b2a565b600060405180830381865afa158015610a61573d6000803e3d6000fd5b505050506040513d6000823e3d601f19601f82011682018060405250810190610a8a91906139cf565b90508060018251610a9b9190613a47565b81518110610aac57610aab613719565b5b6020026020010151945050505050610dec565b6000600267ffffffffffffffff811115610adc57610adb6136ea565b5b604051908082528060200260200182016040528015610b0a5781602001602082028036833780820191505090505b5090508981600081518110610b2257610b21613719565b5b602002602001019073ffffffffffffffffffffffffffffffffffffffff16908173ffffffffffffffffffffffffffffffffffffffff16815250508b81600181518110610b7157610b70613719565b5b602002602001019073ffffffffffffffffffffffffffffffffffffffff16908173ffffffffffffffffffffffffffffffffffffffff168152505060008873ffffffffffffffffffffffffffffffffffffffff1663d06ca61f8d846040518363ffffffff1660e01b8152600401610be8929190613b2a565b600060405180830381865afa158015610c05573d6000803e3d6000fd5b505050506040513d6000823e3d601f19601f82011682018060405250810190610c2e91906139cf565b90508060018251610c3f9190613a47565b81518110610c5057610c4f613719565b5b602002602001015193506000600167ffffffffffffffff811115610c7757610c766136ea565b5b604051908082528060200260200182016040528015610cb057816020015b610c9d6132ca565b815260200190600190039081610c955790505b50905060405180608001604052808f73ffffffffffffffffffffffffffffffffffffffff1681526020018d73ffffffffffffffffffffffffffffffffffffffff1681526020018a15158152602001600073ffffffffffffffffffffffffffffffffffffffff1681525081600081518110610d2d57610d2c613719565b5b602002602001018190525060008b73ffffffffffffffffffffffffffffffffffffffff16635509a1ac87846040518363ffffffff1660e01b8152600401610d7592919061386a565b600060405180830381865afa158015610d92573d6000803e3d6000fd5b505050506040513d6000823e3d601f19601f82011682018060405250810190610dbb91906139cf565b90508060018251610dcc9190613a47565b81518110610ddd57610ddc613719565b5b60200260200101519450505050505b5b8981610df99190613b5a565b8293509350505097509795505050505050565b60008054906101000a900473ffffffffffffffffffffffffffffffffffffffff1681565b610e3d8585858585610f19565b5050505050565b88431115610e87576040517f08c379a0000000000000000000000000000000000000000000000000000000008152600401610e7e90613bfa565b60405180910390fd5b600080610e998a8a8a8a8a8989610113565b9150915060008213610ee0576040517f08c379a0000000000000000000000000000000000000000000000000000000008152600401610ed790613c66565b60405180910390fd5b8215610efb57610ef68a89838a8a8a8a8a612466565b610f0c565b610f0b8a89838a8a8a8a8a612b98565b5b5050505050505050505050565b6000808514610f285784610f2a565b835b90506000806000806000808888810190610f449190613cc4565b80945081955082965083975050505050801561132f57811561114757600033905060008c14610fe1578073ffffffffffffffffffffffffffffffffffffffff16630dfe16816040518163ffffffff1660e01b8152600401602060405180830381865afa158015610fb8573d6000803e3d6000fd5b505050506040513d601f19601f82011682018060405250810190610fdc9190613d40565b611051565b8073ffffffffffffffffffffffffffffffffffffffff1663d21220a76040518163ffffffff1660e01b8152600401602060405180830381865afa15801561102c573d6000803e3d6000fd5b505050506040513d601f19601f820116820180604052508101906110509190613d40565b5b965060008c146110cf578073ffffffffffffffffffffffffffffffffffffffff1663d21220a76040518163ffffffff1660e01b8152600401602060405180830381865afa1580156110a6573d6000803e3d6000fd5b505050506040513d601f19601f820116820180604052508101906110ca9190613d40565b61113f565b8073ffffffffffffffffffffffffffffffffffffffff16630dfe16816040518163ffffffff1660e01b8152600401602060405180830381865afa15801561111a573d6000803e3d6000fd5b505050506040513d601f19601f8201168201806040525081019061113e9190613d40565b5b95505061132a565b600033905060008c146111c8578073ffffffffffffffffffffffffffffffffffffffff16630dfe16816040518163ffffffff1660e01b8152600401602060405180830381865afa15801561119f573d6000803e3d6000fd5b505050506040513d601f19601f820116820180604052508101906111c39190613d40565b611238565b8073ffffffffffffffffffffffffffffffffffffffff1663d21220a76040518163ffffffff1660e01b8152600401602060405180830381865afa158015611213573d6000803e3d6000fd5b505050506040513d601f19601f820116820180604052508101906112379190613d40565b5b965060008c146112b6578073ffffffffffffffffffffffffffffffffffffffff1663d21220a76040518163ffffffff1660e01b8152600401602060405180830381865afa15801561128d573d6000803e3d6000fd5b505050506040513d601f19601f820116820180604052508101906112b19190613d40565b611326565b8073ffffffffffffffffffffffffffffffffffffffff16630dfe16816040518163ffffffff1660e01b8152600401602060405180830381865afa158015611301573d6000803e3d6000fd5b505050506040513d601f19601f820116820180604052508101906113259190613d40565b5b9550505b611700565b811561151c57600033905060008c146113b6578073ffffffffffffffffffffffffffffffffffffffff16630dfe16816040518163ffffffff1660e01b8152600401602060405180830381865afa15801561138d573d6000803e3d6000fd5b505050506040513d601f19601f820116820180604052508101906113b19190613d40565b611426565b8073ffffffffffffffffffffffffffffffffffffffff1663d21220a76040518163ffffffff1660e01b8152600401602060405180830381865afa158015611401573d6000803e3d6000fd5b505050506040513d601f19601f820116820180604052508101906114259190613d40565b5b965060008c146114a4578073ffffffffffffffffffffffffffffffffffffffff1663d21220a76040518163ffffffff1660e01b8152600401602060405180830381865afa15801561147b573d6000803e3d6000fd5b505050506040513d601f19601f8201168201806040525081019061149f9190613d40565b611514565b8073ffffffffffffffffffffffffffffffffffffffff16630dfe16816040518163ffffffff1660e01b8152600401602060405180830381865afa1580156114ef573d6000803e3d6000fd5b505050506040513d601f19601f820116820180604052508101906115139190613d40565b5b9550506116ff565b600033905060008c1461159d578073ffffffffffffffffffffffffffffffffffffffff16630dfe16816040518163ffffffff1660e01b8152600401602060405180830381865afa158015611574573d6000803e3d6000fd5b505050506040513d601f19601f820116820180604052508101906115989190613d40565b61160d565b8073ffffffffffffffffffffffffffffffffffffffff1663d21220a76040518163ffffffff1660e01b8152600401602060405180830381865afa1580156115e8573d6000803e3d6000fd5b505050506040513d601f19601f8201168201806040525081019061160c9190613d40565b5b965060008c1461168b578073ffffffffffffffffffffffffffffffffffffffff1663d21220a76040518163ffffffff1660e01b8152600401602060405180830381865afa158015611662573d6000803e3d6000fd5b505050506040513d601f19601f820116820180604052508101906116869190613d40565b6116fb565b8073ffffffffffffffffffffffffffffffffffffffff16630dfe16816040518163ffffffff1660e01b8152600401602060405180830381865afa1580156116d6573d6000803e3d6000fd5b505050506040513d601f19601f820116820180604052508101906116fa9190613d40565b5b9550505b5b600073ffffffffffffffffffffffffffffffffffffffff168673ffffffffffffffffffffffffffffffffffffffff161415801561176a5750600073ffffffffffffffffffffffffffffffffffffffff168573ffffffffffffffffffffffffffffffffffffffff1614155b6117a9576040517f08c379a00000000000000000000000000000000000000000000000000000000081526004016117a090613db9565b60405180910390fd5b600073ffffffffffffffffffffffffffffffffffffffff168473ffffffffffffffffffffffffffffffffffffffff16141580156118135750600073ffffffffffffffffffffffffffffffffffffffff168373ffffffffffffffffffffffffffffffffffffffff1614155b611852576040517f08c379a000000000000000000000000000000000000000000000000000000000815260040161184990613e25565b60405180910390fd5b8573ffffffffffffffffffffffffffffffffffffffff1663095ea7b384896040518363ffffffff1660e01b815260040161188d929190613e45565b6020604051808303816000875af11580156118ac573d6000803e3d6000fd5b505050506040513d601f19601f820116820180604052508101906118d09190613e83565b5060008115611c40578215611a96576000600267ffffffffffffffff8111156118fc576118fb6136ea565b5b60405190808252806020026020018201604052801561192a5781602001602082028036833780820191505090505b509050878160008151811061194257611941613719565b5b602002602001019073ffffffffffffffffffffffffffffffffffffffff16908173ffffffffffffffffffffffffffffffffffffffff1681525050868160018151811061199157611990613719565b5b602002602001019073ffffffffffffffffffffffffffffffffffffffff16908173ffffffffffffffffffffffffffffffffffffffff168152505060008573ffffffffffffffffffffffffffffffffffffffff166338ed17398b60008530603c426119fb9190613eb0565b6040518663ffffffff1660e01b8152600401611a1b959493929190613f29565b6000604051808303816000875af1158015611a3a573d6000803e3d6000fd5b505050506040513d6000823e3d601f19601f82011682018060405250810190611a6391906139cf565b90508060018251611a749190613a47565b81518110611a8557611a84613719565b5b602002602001015192505050611c3b565b6000600167ffffffffffffffff811115611ab357611ab26136ea565b5b604051908082528060200260200182016040528015611aec57816020015b611ad96132ca565b815260200190600190039081611ad15790505b50905060405180608001604052808973ffffffffffffffffffffffffffffffffffffffff1681526020018873ffffffffffffffffffffffffffffffffffffffff1681526020018515158152602001600073ffffffffffffffffffffffffffffffffffffffff1681525081600081518110611b6957611b68613719565b5b602002602001018190525060008573ffffffffffffffffffffffffffffffffffffffff1663cac88ea98b60008530603c42611ba49190613eb0565b6040518663ffffffff1660e01b8152600401611bc4959493929190613f83565b6000604051808303816000875af1158015611be3573d6000803e3d6000fd5b505050506040513d6000823e3d601f19601f82011682018060405250810190611c0c91906139cf565b90508060018251611c1d9190613a47565b81518110611c2e57611c2d613719565b5b6020026020010151925050505b611fa3565b8215611dfd576000600267ffffffffffffffff811115611c6357611c626136ea565b5b604051908082528060200260200182016040528015611c915781602001602082028036833780820191505090505b5090508781600081518110611ca957611ca8613719565b5b602002602001019073ffffffffffffffffffffffffffffffffffffffff16908173ffffffffffffffffffffffffffffffffffffffff16815250508681600181518110611cf857611cf7613719565b5b602002602001019073ffffffffffffffffffffffffffffffffffffffff16908173ffffffffffffffffffffffffffffffffffffffff168152505060008673ffffffffffffffffffffffffffffffffffffffff166338ed17398b60008530603c42611d629190613eb0565b6040518663ffffffff1660e01b8152600401611d82959493929190613f29565b6000604051808303816000875af1158015611da1573d6000803e3d6000fd5b505050506040513d6000823e3d601f19601f82011682018060405250810190611dca91906139cf565b90508060018251611ddb9190613a47565b81518110611dec57611deb613719565b5b602002602001015192505050611fa2565b6000600167ffffffffffffffff811115611e1a57611e196136ea565b5b604051908082528060200260200182016040528015611e5357816020015b611e406132ca565b815260200190600190039081611e385790505b50905060405180608001604052808973ffffffffffffffffffffffffffffffffffffffff1681526020018873ffffffffffffffffffffffffffffffffffffffff1681526020018515158152602001600073ffffffffffffffffffffffffffffffffffffffff1681525081600081518110611ed057611ecf613719565b5b602002602001018190525060008673ffffffffffffffffffffffffffffffffffffffff1663cac88ea98b60008530603c42611f0b9190613eb0565b6040518663ffffffff1660e01b8152600401611f2b959493929190613f83565b6000604051808303816000875af1158015611f4a573d6000803e3d6000fd5b505050506040513d6000823e3d601f19601f82011682018060405250810190611f7391906139cf565b90508060018251611f849190613a47565b81518110611f9557611f94613719565b5b6020026020010151925050505b5b6000821561214a578315611fb957889050612145565b6000600267ffffffffffffffff811115611fd657611fd56136ea565b5b6040519080825280602002602001820160405280156120045781602001602082028036833780820191505090505b509050878160008151811061201c5761201b613719565b5b602002602001019073ffffffffffffffffffffffffffffffffffffffff16908173ffffffffffffffffffffffffffffffffffffffff1681525050888160018151811061206b5761206a613719565b5b602002602001019073ffffffffffffffffffffffffffffffffffffffff16908173ffffffffffffffffffffffffffffffffffffffff16815250508673ffffffffffffffffffffffffffffffffffffffff16631f00ca748b836040518363ffffffff1660e01b81526004016120e0929190613b2a565b600060405180830381865afa1580156120fd573d6000803e3d6000fd5b505050506040513d6000823e3d601f19601f8201168201806040525081019061212691906139cf565b60008151811061213957612138613719565b5b60200260200101519150505b6122e5565b8315612158578890506122e4565b6000600267ffffffffffffffff811115612175576121746136ea565b5b6040519080825280602002602001820160405280156121a35781602001602082028036833780820191505090505b50905087816000815181106121bb576121ba613719565b5b602002602001019073ffffffffffffffffffffffffffffffffffffffff16908173ffffffffffffffffffffffffffffffffffffffff1681525050888160018151811061220a57612209613719565b5b602002602001019073ffffffffffffffffffffffffffffffffffffffff16908173ffffffffffffffffffffffffffffffffffffffff16815250508573ffffffffffffffffffffffffffffffffffffffff16631f00ca748b836040518363ffffffff1660e01b815260040161227f929190613b2a565b600060405180830381865afa15801561229c573d6000803e3d6000fd5b505050506040513d6000823e3d601f19601f820116820180604052508101906122c591906139cf565b6000815181106122d8576122d7613719565b5b60200260200101519150505b5b808211612327576040517f08c379a000000000000000000000000000000000000000000000000000000000815260040161231e90614029565b60405180910390fd5b8773ffffffffffffffffffffffffffffffffffffffff1663a9059cbb338b6040518363ffffffff1660e01b8152600401612362929190613e45565b6020604051808303816000875af1158015612381573d6000803e3d6000fd5b505050506040513d601f19601f820116820180604052508101906123a59190613e83565b50600081836123b49190613a47565b90508773ffffffffffffffffffffffffffffffffffffffff1663a9059cbb60008054906101000a900473ffffffffffffffffffffffffffffffffffffffff16836040518363ffffffff1660e01b8152600401612411929190613e45565b6020604051808303816000875af1158015612430573d6000803e3d6000fd5b505050506040513d601f19601f820116820180604052508101906124549190613e83565b50505050505050505050505050505050565b81156128005760008373ffffffffffffffffffffffffffffffffffffffff16636801cc308a8a866040518463ffffffff1660e01b81526004016124ab93929190614058565b602060405180830381865afa1580156124c8573d6000803e3d6000fd5b505050506040513d601f19601f820116820180604052508101906124ec9190613d40565b9050600073ffffffffffffffffffffffffffffffffffffffff168173ffffffffffffffffffffffffffffffffffffffff160361255d576040517f08c379a0000000000000000000000000000000000000000000000000000000008152600401612554906140db565b60405180910390fd5b60008173ffffffffffffffffffffffffffffffffffffffff16630dfe16816040518163ffffffff1660e01b8152600401602060405180830381865afa1580156125aa573d6000803e3d6000fd5b505050506040513d601f19601f820116820180604052508101906125ce9190613d40565b905060008273ffffffffffffffffffffffffffffffffffffffff1663d21220a76040518163ffffffff1660e01b8152600401602060405180830381865afa15801561261d573d6000803e3d6000fd5b505050506040513d601f19601f820116820180604052508101906126419190613d40565b9050600073ffffffffffffffffffffffffffffffffffffffff168273ffffffffffffffffffffffffffffffffffffffff16141580156126ad5750600073ffffffffffffffffffffffffffffffffffffffff168173ffffffffffffffffffffffffffffffffffffffff1614155b6126ec576040517f08c379a00000000000000000000000000000000000000000000000000000000081526004016126e390614147565b60405180910390fd5b8273ffffffffffffffffffffffffffffffffffffffff1663022c0d9f8373ffffffffffffffffffffffffffffffffffffffff168d73ffffffffffffffffffffffffffffffffffffffff1614612742576000612744565b8a5b8373ffffffffffffffffffffffffffffffffffffffff168e73ffffffffffffffffffffffffffffffffffffffff161461277e576000612780565b8b5b308c8c8b8b6040516020016127989493929190614167565b6040516020818303038152906040526040518563ffffffff1660e01b81526004016127c6949392919061422b565b600060405180830381600087803b1580156127e057600080fd5b505af11580156127f4573d6000803e3d6000fd5b50505050505050612b8e565b60008373ffffffffffffffffffffffffffffffffffffffff1663e6a439058a8a6040518363ffffffff1660e01b815260040161283d929190614277565b602060405180830381865afa15801561285a573d6000803e3d6000fd5b505050506040513d601f19601f8201168201806040525081019061287e9190613d40565b9050600073ffffffffffffffffffffffffffffffffffffffff168173ffffffffffffffffffffffffffffffffffffffff16036128ef576040517f08c379a00000000000000000000000000000000000000000000000000000000081526004016128e6906140db565b60405180910390fd5b60008173ffffffffffffffffffffffffffffffffffffffff16630dfe16816040518163ffffffff1660e01b8152600401602060405180830381865afa15801561293c573d6000803e3d6000fd5b505050506040513d601f19601f820116820180604052508101906129609190613d40565b905060008273ffffffffffffffffffffffffffffffffffffffff1663d21220a76040518163ffffffff1660e01b8152600401602060405180830381865afa1580156129af573d6000803e3d6000fd5b505050506040513d601f19601f820116820180604052508101906129d39190613d40565b9050600073ffffffffffffffffffffffffffffffffffffffff168273ffffffffffffffffffffffffffffffffffffffff1614158015612a3f5750600073ffffffffffffffffffffffffffffffffffffffff168173ffffffffffffffffffffffffffffffffffffffff1614155b612a7e576040517f08c379a0000000000000000000000000000000000000000000000000000000008152600401612a7590614147565b60405180910390fd5b8273ffffffffffffffffffffffffffffffffffffffff1663022c0d9f8373ffffffffffffffffffffffffffffffffffffffff168d73ffffffffffffffffffffffffffffffffffffffff1614612ad4576000612ad6565b8a5b8373ffffffffffffffffffffffffffffffffffffffff168e73ffffffffffffffffffffffffffffffffffffffff1614612b10576000612b12565b8b5b308c8c8b8b604051602001612b2a9493929190614167565b6040516020818303038152906040526040518563ffffffff1660e01b8152600401612b58949392919061422b565b600060405180830381600087803b158015612b7257600080fd5b505af1158015612b86573d6000803e3d6000fd5b505050505050505b5050505050505050565b8115612f325760008373ffffffffffffffffffffffffffffffffffffffff16636801cc308a8a866040518463ffffffff1660e01b8152600401612bdd93929190614058565b602060405180830381865afa158015612bfa573d6000803e3d6000fd5b505050506040513d601f19601f82011682018060405250810190612c1e9190613d40565b9050600073ffffffffffffffffffffffffffffffffffffffff168173ffffffffffffffffffffffffffffffffffffffff1603612c8f576040517f08c379a0000000000000000000000000000000000000000000000000000000008152600401612c86906140db565b60405180910390fd5b60008173ffffffffffffffffffffffffffffffffffffffff16630dfe16816040518163ffffffff1660e01b8152600401602060405180830381865afa158015612cdc573d6000803e3d6000fd5b505050506040513d601f19601f82011682018060405250810190612d009190613d40565b905060008273ffffffffffffffffffffffffffffffffffffffff1663d21220a76040518163ffffffff1660e01b8152600401602060405180830381865afa158015612d4f573d6000803e3d6000fd5b505050506040513d601f19601f82011682018060405250810190612d739190613d40565b9050600073ffffffffffffffffffffffffffffffffffffffff168273ffffffffffffffffffffffffffffffffffffffff1614158015612ddf5750600073ffffffffffffffffffffffffffffffffffffffff168173ffffffffffffffffffffffffffffffffffffffff1614155b612e1e576040517f08c379a0000000000000000000000000000000000000000000000000000000008152600401612e1590614147565b60405180910390fd5b8273ffffffffffffffffffffffffffffffffffffffff1663022c0d9f8373ffffffffffffffffffffffffffffffffffffffff168d73ffffffffffffffffffffffffffffffffffffffff1614612e74576000612e76565b8a5b8373ffffffffffffffffffffffffffffffffffffffff168e73ffffffffffffffffffffffffffffffffffffffff1614612eb0576000612eb2565b8b5b308c8c8b8b604051602001612eca9493929190614167565b6040516020818303038152906040526040518563ffffffff1660e01b8152600401612ef8949392919061422b565b600060405180830381600087803b158015612f1257600080fd5b505af1158015612f26573d6000803e3d6000fd5b505050505050506132c0565b60008373ffffffffffffffffffffffffffffffffffffffff1663e6a439058a8a6040518363ffffffff1660e01b8152600401612f6f929190614277565b602060405180830381865afa158015612f8c573d6000803e3d6000fd5b505050506040513d601f19601f82011682018060405250810190612fb09190613d40565b9050600073ffffffffffffffffffffffffffffffffffffffff168173ffffffffffffffffffffffffffffffffffffffff1603613021576040517f08c379a0000000000000000000000000000000000000000000000000000000008152600401613018906140db565b60405180910390fd5b60008173ffffffffffffffffffffffffffffffffffffffff16630dfe16816040518163ffffffff1660e01b8152600401602060405180830381865afa15801561306e573d6000803e3d6000fd5b505050506040513d601f19601f820116820180604052508101906130929190613d40565b905060008273ffffffffffffffffffffffffffffffffffffffff1663d21220a76040518163ffffffff1660e01b8152600401602060405180830381865afa1580156130e1573d6000803e3d6000fd5b505050506040513d601f19601f820116820180604052508101906131059190613d40565b9050600073ffffffffffffffffffffffffffffffffffffffff168273ffffffffffffffffffffffffffffffffffffffff16141580156131715750600073ffffffffffffffffffffffffffffffffffffffff168173ffffffffffffffffffffffffffffffffffffffff1614155b6131b0576040517f08c379a00000000000000000000000000000000000000000000000000000000081526004016131a790614147565b60405180910390fd5b8273ffffffffffffffffffffffffffffffffffffffff1663022c0d9f8373ffffffffffffffffffffffffffffffffffffffff168d73ffffffffffffffffffffffffffffffffffffffff1614613206576000613208565b8a5b8373ffffffffffffffffffffffffffffffffffffffff168e73ffffffffffffffffffffffffffffffffffffffff1614613242576000613244565b8b5b308c8c8b8b60405160200161325c9493929190614167565b6040516020818303038152906040526040518563ffffffff1660e01b815260040161328a949392919061422b565b600060405180830381600087803b1580156132a457600080fd5b505af11580156132b8573d6000803e3d6000fd5b505050505050505b5050505050505050565b6040518060800160405280600073ffffffffffffffffffffffffffffffffffffffff168152602001600073ffffffffffffffffffffffffffffffffffffffff168152602001600015158152602001600073ffffffffffffffffffffffffffffffffffffffff1681525090565b6000604051905090565b600080fd5b600080fd5b600073ffffffffffffffffffffffffffffffffffffffff82169050919050565b60006133758261334a565b9050919050565b6133858161336a565b811461339057600080fd5b50565b6000813590506133a28161337c565b92915050565b6000819050919050565b6133bb816133a8565b81146133c657600080fd5b50565b6000813590506133d8816133b2565b92915050565b600080fd5b600080fd5b600080fd5b60008083601f840112613403576134026133de565b5b8235905067ffffffffffffffff8111156134205761341f6133e3565b5b60208301915083600182028301111561343c5761343b6133e8565b5b9250929050565b60008060008060006080868803121561345f5761345e613340565b5b600061346d88828901613393565b955050602061347e888289016133c9565b945050604061348f888289016133c9565b935050606086013567ffffffffffffffff8111156134b0576134af613345565b5b6134bc888289016133ed565b92509250509295509295909350565b60008115159050919050565b6134e0816134cb565b81146134eb57600080fd5b50565b6000813590506134fd816134d7565b92915050565b600080600080600080600060e0888a03121561352257613521613340565b5b60006135308a828b01613393565b97505060206135418a828b016133c9565b96505060406135528a828b01613393565b95505060606135638a828b01613393565b94505060806135748a828b01613393565b93505060a06135858a828b016134ee565b92505060c06135968a828b016134ee565b91505092959891949750929550565b6000819050919050565b6135b8816135a5565b82525050565b6135c7816133a8565b82525050565b60006040820190506135e260008301856135af565b6135ef60208301846135be565b9392505050565b6135ff8161336a565b82525050565b600060208201905061361a60008301846135f6565b92915050565b60008060008060008060008060006101208a8c03121561364357613642613340565b5b60006136518c828d016133c9565b99505060206136628c828d01613393565b98505060406136738c828d016133c9565b97505060606136848c828d01613393565b96505060806136958c828d01613393565b95505060a06136a68c828d01613393565b94505060c06136b78c828d01613393565b93505060e06136c88c828d016134ee565b9250506101006136da8c828d016134ee565b9150509295985092959850929598565b7f4e487b7100000000000000000000000000000000000000000000000000000000600052604160045260246000fd5b7f4e487b7100000000000000000000000000000000000000000000000000000000600052603260045260246000fd5b600081519050919050565b600082825260208201905092915050565b6000819050602082019050919050565b61377d8161336a565b82525050565b61378c816134cb565b82525050565b6080820160008201516137a86000850182613774565b5060208201516137bb6020850182613774565b5060408201516137ce6040850182613783565b5060608201516137e16060850182613774565b50505050565b60006137f38383613792565b60808301905092915050565b6000602082019050919050565b600061381782613748565b6138218185613753565b935061382c83613764565b8060005b8381101561385d57815161384488826137e7565b975061384f836137ff565b925050600181019050613830565b5085935050505092915050565b600060408201905061387f60008301856135be565b8181036020830152613891818461380c565b90509392505050565b6000601f19601f8301169050919050565b6138b48261389a565b810181811067ffffffffffffffff821117156138d3576138d26136ea565b5b80604052505050565b60006138e6613336565b90506138f282826138ab565b919050565b600067ffffffffffffffff821115613912576139116136ea565b5b602082029050602081019050919050565b600081519050613932816133b2565b92915050565b600061394b613946846138f7565b6138dc565b9050808382526020820190506020840283018581111561396e5761396d6133e8565b5b835b8181101561399757806139838882613923565b845260208401935050602081019050613970565b5050509392505050565b600082601f8301126139b6576139b56133de565b5b81516139c6848260208601613938565b91505092915050565b6000602082840312156139e5576139e4613340565b5b600082015167ffffffffffffffff811115613a0357613a02613345565b5b613a0f848285016139a1565b91505092915050565b7f4e487b7100000000000000000000000000000000000000000000000000000000600052601160045260246000fd5b6000613a52826133a8565b9150613a5d836133a8565b9250828203905081811115613a7557613a74613a18565b5b92915050565b600081519050919050565b600082825260208201905092915050565b6000819050602082019050919050565b6000613ab38383613774565b60208301905092915050565b6000602082019050919050565b6000613ad782613a7b565b613ae18185613a86565b9350613aec83613a97565b8060005b83811015613b1d578151613b048882613aa7565b9750613b0f83613abf565b925050600181019050613af0565b5085935050505092915050565b6000604082019050613b3f60008301856135be565b8181036020830152613b518184613acc565b90509392505050565b6000613b65826135a5565b9150613b70836135a5565b9250828203905081811260008412168282136000851215161715613b9757613b96613a18565b5b92915050565b600082825260208201905092915050565b7f6530300000000000000000000000000000000000000000000000000000000000600082015250565b6000613be4600383613b9d565b9150613bef82613bae565b602082019050919050565b60006020820190508181036000830152613c1381613bd7565b9050919050565b7f6530310000000000000000000000000000000000000000000000000000000000600082015250565b6000613c50600383613b9d565b9150613c5b82613c1a565b602082019050919050565b60006020820190508181036000830152613c7f81613c43565b9050919050565b6000613c918261334a565b9050919050565b613ca181613c86565b8114613cac57600080fd5b50565b600081359050613cbe81613c98565b92915050565b60008060008060808587031215613cde57613cdd613340565b5b6000613cec87828801613caf565b9450506020613cfd87828801613caf565b9350506040613d0e878288016134ee565b9250506060613d1f878288016134ee565b91505092959194509250565b600081519050613d3a8161337c565b92915050565b600060208284031215613d5657613d55613340565b5b6000613d6484828501613d2b565b91505092915050565b7f6531360000000000000000000000000000000000000000000000000000000000600082015250565b6000613da3600383613b9d565b9150613dae82613d6d565b602082019050919050565b60006020820190508181036000830152613dd281613d96565b9050919050565b7f6531320000000000000000000000000000000000000000000000000000000000600082015250565b6000613e0f600383613b9d565b9150613e1a82613dd9565b602082019050919050565b60006020820190508181036000830152613e3e81613e02565b9050919050565b6000604082019050613e5a60008301856135f6565b613e6760208301846135be565b9392505050565b600081519050613e7d816134d7565b92915050565b600060208284031215613e9957613e98613340565b5b6000613ea784828501613e6e565b91505092915050565b6000613ebb826133a8565b9150613ec6836133a8565b9250828201905080821115613ede57613edd613a18565b5b92915050565b6000819050919050565b6000819050919050565b6000613f13613f0e613f0984613ee4565b613eee565b6133a8565b9050919050565b613f2381613ef8565b82525050565b600060a082019050613f3e60008301886135be565b613f4b6020830187613f1a565b8181036040830152613f5d8186613acc565b9050613f6c60608301856135f6565b613f7960808301846135be565b9695505050505050565b600060a082019050613f9860008301886135be565b613fa56020830187613f1a565b8181036040830152613fb7818661380c565b9050613fc660608301856135f6565b613fd360808301846135be565b9695505050505050565b7f6531330000000000000000000000000000000000000000000000000000000000600082015250565b6000614013600383613b9d565b915061401e82613fdd565b602082019050919050565b6000602082019050818103600083015261404281614006565b9050919050565b614052816134cb565b82525050565b600060608201905061406d60008301866135f6565b61407a60208301856135f6565b6140876040830184614049565b949350505050565b7f6531300000000000000000000000000000000000000000000000000000000000600082015250565b60006140c5600383613b9d565b91506140d08261408f565b602082019050919050565b600060208201905081810360008301526140f4816140b8565b9050919050565b7f6531310000000000000000000000000000000000000000000000000000000000600082015250565b6000614131600383613b9d565b915061413c826140fb565b602082019050919050565b6000602082019050818103600083015261416081614124565b9050919050565b600060808201905061417c60008301876135f6565b61418960208301866135f6565b6141966040830185614049565b6141a36060830184614049565b95945050505050565b600081519050919050565b600082825260208201905092915050565b60005b838110156141e65780820151818401526020810190506141cb565b60008484015250505050565b60006141fd826141ac565b61420781856141b7565b93506142178185602086016141c8565b6142208161389a565b840191505092915050565b600060808201905061424060008301876135be565b61424d60208301866135be565b61425a60408301856135f6565b818103606083015261426c81846141f2565b905095945050505050565b600060408201905061428c60008301856135f6565b61429960208301846135f6565b939250505056fea264697066735822122059333c65f9b5941ed37563d44d0397aa788d5de055314cbe62ed4ba10423a17f64736f6c634300081a0033",
  "linkReferences": {},
  "deployedLinkReferences": {}
}