{
  "_format": "hh-sol-artifact-1",
  "contractName": "UniswapV3FlashSwap",
  "sourceName": "contracts/UniswapV3FlashArb.sol",
  "abi": [
    {
      "inputs": [],
      "stateMutability": "nonpayable",
      "type": "constructor"
    },
    {
      "inputs": [
        {
          "internalType": "address",
          "name": "pool0",
          "type": "address"
        },
        {
          "internalType": "uint24",
          "name": "fee1",
          "type": "uint24"
        },
        {
          "internalType": "address",
          "name": "tokenIn",
          "type": "address"
        },
        {
          "internalType": "address",
          "name": "tokenOut",
          "type": "address"
        },
        {
          "internalType": "uint256",
          "name": "amountIn",
          "type": "uint256"
        }
      ],
      "name": "check",
      "outputs": [
        {
          "internalType": "int256",
          "name": "profit",
          "type": "int256"
        },
        {
          "internalType": "uint256",
          "name": "buyBackAmount",
          "type": "uint256"
        }
      ],
      "stateMutability": "nonpayable",
      "type": "function"
    },
    {
      "inputs": [
        {
          "internalType": "address",
          "name": "pool0",
          "type": "address"
        },
        {
          "internalType": "uint24",
          "name": "fee1",
          "type": "uint24"
        },
        {
          "internalType": "address",
          "name": "tokenIn",
          "type": "address"
        },
        {
          "internalType": "address",
          "name": "tokenOut",
          "type": "address"
        },
        {
          "internalType": "uint256",
          "name": "amountIn",
          "type": "uint256"
        }
      ],
      "name": "flashSwap",
      "outputs": [],
      "stateMutability": "nonpayable",
      "type": "function"
    },
    {
      "inputs": [],
      "name": "owner",
      "outputs": [
        {
          "internalType": "address",
          "name": "",
          "type": "address"
        }
      ],
      "stateMutability": "view",
      "type": "function"
    },
    {
      "inputs": [],
      "name": "quoter",
      "outputs": [
        {
          "internalType": "contract IQuoterV2",
          "name": "",
          "type": "address"
        }
      ],
      "stateMutability": "view",
      "type": "function"
    },
    {
      "inputs": [],
      "name": "router",
      "outputs": [
        {
          "internalType": "contract ISwapRouter02",
          "name": "",
          "type": "address"
        }
      ],
      "stateMutability": "view",
      "type": "function"
    },
    {
      "inputs": [
        {
          "internalType": "int256",
          "name": "amount0",
          "type": "int256"
        },
        {
          "internalType": "int256",
          "name": "amount1",
          "type": "int256"
        },
        {
          "internalType": "bytes",
          "name": "data",
          "type": "bytes"
        }
      ],
      "name": "uniswapV3SwapCallback",
      "outputs": [],
      "stateMutability": "nonpayable",
      "type": "function"
    }
  ],
  "bytecode": "0x60c060405234801561001057600080fd5b50336000806101000a81548173ffffffffffffffffffffffffffffffffffffffff021916908373ffffffffffffffffffffffffffffffffffffffff16021790555073a1f56f72b0320179b01a947a5f78678e8f96f8ec73ffffffffffffffffffffffffffffffffffffffff1660808173ffffffffffffffffffffffffffffffffffffffff168152505073de43abe37ab3b5202c22422795a527151d65eb1873ffffffffffffffffffffffffffffffffffffffff1660a08173ffffffffffffffffffffffffffffffffffffffff168152505060805160a051611a2b610130600039600081816102fd01528181610334015281816104ec01528181610523015261069a0152600081816106be0152818161098a0152610aa20152611a2b6000f3fe608060405234801561001057600080fd5b50600436106100625760003560e01c806348368ae8146100675780638da5cb5b14610083578063ae5dd82b146100a1578063c6bbd5a7146100d2578063f887ea40146100f0578063fa461e331461010e575b600080fd5b610081600480360381019061007c9190610c2b565b61012a565b005b61008b61025e565b6040516100989190610cb5565b60405180910390f35b6100bb60048036038101906100b69190610c2b565b610282565b6040516100c9929190610cf8565b60405180910390f35b6100da610698565b6040516100e79190610d80565b60405180910390f35b6100f86106bc565b6040516101059190610dbc565b60405180910390f35b61012860048036038101906101239190610e68565b6106e0565b005b60008273ffffffffffffffffffffffffffffffffffffffff168473ffffffffffffffffffffffffffffffffffffffff1610905060008161018a57600173fffd8963efd1fc6a506488495d951d5263988d266101859190610f0b565b61019d565b60016401000276a361019c9190610f53565b5b90506000338888888888886040516020016101be9796959493929190610fc5565b60405160208183030381529060405290508773ffffffffffffffffffffffffffffffffffffffff1663128acb0830858786866040518663ffffffff1660e01b81526004016102109594939291906110d3565b60408051808303816000875af115801561022e573d6000803e3d6000fd5b505050506040513d601f19601f820116820180604052508101906102529190611142565b50505050505050505050565b60008054906101000a900473ffffffffffffffffffffffffffffffffffffffff1681565b60008060006040518060a001604052808773ffffffffffffffffffffffffffffffffffffffff1681526020018673ffffffffffffffffffffffffffffffffffffffff1681526020018581526020018862ffffff168152602001600073ffffffffffffffffffffffffffffffffffffffff1681525090506000807f000000000000000000000000000000000000000000000000000000000000000073ffffffffffffffffffffffffffffffffffffffff167f00000000000000000000000000000000000000000000000000000000000000005063c6a5026a60e01b8460405160240161036d9190611226565b604051602081830303815290604052907bffffffffffffffffffffffffffffffffffffffffffffffffffffffff19166020820180517bffffffffffffffffffffffffffffffffffffffffffffffffffffffff83818316178352505050506040516103d7919061127d565b6000604051808303816000865af19150503d8060008114610414576040519150601f19603f3d011682016040523d82523d6000602084013e610419565b606091505b5091509150811561045f576040517f08c379a0000000000000000000000000000000000000000000000000000000008152600401610456906112f1565b60405180910390fd5b600061046a8261089d565b505050905060008a905060006040518060a001604052808b73ffffffffffffffffffffffffffffffffffffffff1681526020018c73ffffffffffffffffffffffffffffffffffffffff1681526020018481526020018362ffffff168152602001600073ffffffffffffffffffffffffffffffffffffffff1681525090506000807f000000000000000000000000000000000000000000000000000000000000000073ffffffffffffffffffffffffffffffffffffffff167f00000000000000000000000000000000000000000000000000000000000000005063c6a5026a60e01b8460405160240161055c9190611226565b604051602081830303815290604052907bffffffffffffffffffffffffffffffffffffffffffffffffffffffff19166020820180517bffffffffffffffffffffffffffffffffffffffffffffffffffffffff83818316178352505050506040516105c6919061127d565b6000604051808303816000865af19150503d8060008114610603576040519150601f19603f3d011682016040523d82523d6000602084013e610608565b606091505b5091509150811561064e576040517f08c379a000000000000000000000000000000000000000000000000000000000815260040161064590611383565b60405180910390fd5b60006106598261089d565b50505090508b81111561067c578b8161067291906113a3565b9a50859950610685565b60009a50600099505b5050505050505050509550959350505050565b7f000000000000000000000000000000000000000000000000000000000000000081565b7f000000000000000000000000000000000000000000000000000000000000000081565b600080600080600080600088888101906106fa9190611441565b965096509650965096509650965060008161071e578b610719906114e3565b610729565b8a610728906114e3565b5b9050600061073a858789858861096a565b90506000848261074a91906113a3565b90506000811161078f576040517f08c379a000000000000000000000000000000000000000000000000000000000815260040161078690611577565b60405180910390fd5b8673ffffffffffffffffffffffffffffffffffffffff1663a9059cbb8a876040518363ffffffff1660e01b81526004016107ca929190611597565b6020604051808303816000875af11580156107e9573d6000803e3d6000fd5b505050506040513d601f19601f8201168201806040525081019061080d91906115d5565b508673ffffffffffffffffffffffffffffffffffffffff1663a9059cbb8b836040518363ffffffff1660e01b8152600401610849929190611597565b6020604051808303816000875af1158015610868573d6000803e3d6000fd5b505050506040513d601f19601f8201168201806040525081019061088c91906115d5565b505050505050505050505050505050565b6000806000806060855114610947576044855110156108f1576040517f08c379a00000000000000000000000000000000000000000000000000000000081526004016108e89061164e565b60405180910390fd5b6004850194508480602001905181019061090b919061178f565b6040517f08c379a000000000000000000000000000000000000000000000000000000000815260040161093e919061181c565b60405180910390fd5b8480602001905181019061095b91906118b8565b93509350935093509193509193565b60008573ffffffffffffffffffffffffffffffffffffffff1663095ea7b37f0000000000000000000000000000000000000000000000000000000000000000856040518363ffffffff1660e01b81526004016109c7929190611597565b6020604051808303816000875af11580156109e6573d6000803e3d6000fd5b505050506040513d601f19601f82011682018060405250810190610a0a91906115d5565b5060006040518060e001604052808873ffffffffffffffffffffffffffffffffffffffff1681526020018773ffffffffffffffffffffffffffffffffffffffff1681526020018662ffffff1681526020013073ffffffffffffffffffffffffffffffffffffffff168152602001858152602001848152602001600073ffffffffffffffffffffffffffffffffffffffff1681525090507f000000000000000000000000000000000000000000000000000000000000000073ffffffffffffffffffffffffffffffffffffffff166304e45aaf826040518263ffffffff1660e01b8152600401610af991906119ad565b6020604051808303816000875af1158015610b18573d6000803e3d6000fd5b505050506040513d601f19601f82011682018060405250810190610b3c91906119c8565b91505095945050505050565b6000604051905090565b600080fd5b600080fd5b600073ffffffffffffffffffffffffffffffffffffffff82169050919050565b6000610b8782610b5c565b9050919050565b610b9781610b7c565b8114610ba257600080fd5b50565b600081359050610bb481610b8e565b92915050565b600062ffffff82169050919050565b610bd281610bba565b8114610bdd57600080fd5b50565b600081359050610bef81610bc9565b92915050565b6000819050919050565b610c0881610bf5565b8114610c1357600080fd5b50565b600081359050610c2581610bff565b92915050565b600080600080600060a08688031215610c4757610c46610b52565b5b6000610c5588828901610ba5565b9550506020610c6688828901610be0565b9450506040610c7788828901610ba5565b9350506060610c8888828901610ba5565b9250506080610c9988828901610c16565b9150509295509295909350565b610caf81610b7c565b82525050565b6000602082019050610cca6000830184610ca6565b92915050565b6000819050919050565b610ce381610cd0565b82525050565b610cf281610bf5565b82525050565b6000604082019050610d0d6000830185610cda565b610d1a6020830184610ce9565b9392505050565b6000819050919050565b6000610d46610d41610d3c84610b5c565b610d21565b610b5c565b9050919050565b6000610d5882610d2b565b9050919050565b6000610d6a82610d4d565b9050919050565b610d7a81610d5f565b82525050565b6000602082019050610d956000830184610d71565b92915050565b6000610da682610d4d565b9050919050565b610db681610d9b565b82525050565b6000602082019050610dd16000830184610dad565b92915050565b610de081610cd0565b8114610deb57600080fd5b50565b600081359050610dfd81610dd7565b92915050565b600080fd5b600080fd5b600080fd5b60008083601f840112610e2857610e27610e03565b5b8235905067ffffffffffffffff811115610e4557610e44610e08565b5b602083019150836001820283011115610e6157610e60610e0d565b5b9250929050565b60008060008060608587031215610e8257610e81610b52565b5b6000610e9087828801610dee565b9450506020610ea187828801610dee565b935050604085013567ffffffffffffffff811115610ec257610ec1610b57565b5b610ece87828801610e12565b925092505092959194509250565b7f4e487b7100000000000000000000000000000000000000000000000000000000600052601160045260246000fd5b6000610f1682610b5c565b9150610f2183610b5c565b9250828203905073ffffffffffffffffffffffffffffffffffffffff811115610f4d57610f4c610edc565b5b92915050565b6000610f5e82610b5c565b9150610f6983610b5c565b9250828201905073ffffffffffffffffffffffffffffffffffffffff811115610f9557610f94610edc565b5b92915050565b610fa481610bba565b82525050565b60008115159050919050565b610fbf81610faa565b82525050565b600060e082019050610fda600083018a610ca6565b610fe76020830189610ca6565b610ff46040830188610f9b565b6110016060830187610ca6565b61100e6080830186610ca6565b61101b60a0830185610ce9565b61102860c0830184610fb6565b98975050505050505050565b61103d81610b5c565b82525050565b600081519050919050565b600082825260208201905092915050565b60005b8381101561107d578082015181840152602081019050611062565b60008484015250505050565b6000601f19601f8301169050919050565b60006110a582611043565b6110af818561104e565b93506110bf81856020860161105f565b6110c881611089565b840191505092915050565b600060a0820190506110e86000830188610ca6565b6110f56020830187610fb6565b6111026040830186610cda565b61110f6060830185611034565b8181036080830152611121818461109a565b90509695505050505050565b60008151905061113c81610dd7565b92915050565b6000806040838503121561115957611158610b52565b5b60006111678582860161112d565b92505060206111788582860161112d565b9150509250929050565b61118b81610b7c565b82525050565b61119a81610bf5565b82525050565b6111a981610bba565b82525050565b6111b881610b5c565b82525050565b60a0820160008201516111d46000850182611182565b5060208201516111e76020850182611182565b5060408201516111fa6040850182611191565b50606082015161120d60608501826111a0565b50608082015161122060808501826111af565b50505050565b600060a08201905061123b60008301846111be565b92915050565b600081905092915050565b600061125782611043565b6112618185611241565b935061127181856020860161105f565b80840191505092915050565b6000611289828461124c565b915081905092915050565b600082825260208201905092915050565b7f51756f74657256323a2045787065637465642072657665727400000000000000600082015250565b60006112db601983611294565b91506112e6826112a5565b602082019050919050565b6000602082019050818103600083015261130a816112ce565b9050919050565b7f51756f74657256323a20457870656374656420726576657274206f6e2074617260008201527f6765740000000000000000000000000000000000000000000000000000000000602082015250565b600061136d602383611294565b915061137882611311565b604082019050919050565b6000602082019050818103600083015261139c81611360565b9050919050565b60006113ae82610bf5565b91506113b983610bf5565b92508282039050818111156113d1576113d0610edc565b5b92915050565b60006113e282610b5c565b9050919050565b6113f2816113d7565b81146113fd57600080fd5b50565b60008135905061140f816113e9565b92915050565b61141e81610faa565b811461142957600080fd5b50565b60008135905061143b81611415565b92915050565b600080600080600080600060e0888a0312156114605761145f610b52565b5b600061146e8a828b01611400565b975050602061147f8a828b01611400565b96505060406114908a828b01610be0565b95505060606114a18a828b01611400565b94505060806114b28a828b01611400565b93505060a06114c38a828b01610c16565b92505060c06114d48a828b0161142c565b91505092959891949750929550565b60006114ee82610cd0565b91507f800000000000000000000000000000000000000000000000000000000000000082036115205761151f610edc565b5b816000039050919050565b7f70726f666974203d203000000000000000000000000000000000000000000000600082015250565b6000611561600a83611294565b915061156c8261152b565b602082019050919050565b6000602082019050818103600083015261159081611554565b9050919050565b60006040820190506115ac6000830185610ca6565b6115b96020830184610ce9565b9392505050565b6000815190506115cf81611415565b92915050565b6000602082840312156115eb576115ea610b52565b5b60006115f9848285016115c0565b91505092915050565b7f556e6578706563746564206572726f7200000000000000000000000000000000600082015250565b6000611638601083611294565b915061164382611602565b602082019050919050565b600060208201905081810360008301526116678161162b565b9050919050565b600080fd5b7f4e487b7100000000000000000000000000000000000000000000000000000000600052604160045260246000fd5b6116ab82611089565b810181811067ffffffffffffffff821117156116ca576116c9611673565b5b80604052505050565b60006116dd610b48565b90506116e982826116a2565b919050565b600067ffffffffffffffff82111561170957611708611673565b5b61171282611089565b9050602081019050919050565b600061173261172d846116ee565b6116d3565b90508281526020810184848401111561174e5761174d61166e565b5b61175984828561105f565b509392505050565b600082601f83011261177657611775610e03565b5b815161178684826020860161171f565b91505092915050565b6000602082840312156117a5576117a4610b52565b5b600082015167ffffffffffffffff8111156117c3576117c2610b57565b5b6117cf84828501611761565b91505092915050565b600081519050919050565b60006117ee826117d8565b6117f88185611294565b935061180881856020860161105f565b61181181611089565b840191505092915050565b6000602082019050818103600083015261183681846117e3565b905092915050565b60008151905061184d81610bff565b92915050565b61185c81610b5c565b811461186757600080fd5b50565b60008151905061187981611853565b92915050565b60008160020b9050919050565b6118958161187f565b81146118a057600080fd5b50565b6000815190506118b28161188c565b92915050565b600080600080608085870312156118d2576118d1610b52565b5b60006118e08782880161183e565b94505060206118f18782880161186a565b9350506040611902878288016118a3565b92505060606119138782880161183e565b91505092959194509250565b60e0820160008201516119356000850182611182565b5060208201516119486020850182611182565b50604082015161195b60408501826111a0565b50606082015161196e6060850182611182565b5060808201516119816080850182611191565b5060a082015161199460a0850182611191565b5060c08201516119a760c08501826111af565b50505050565b600060e0820190506119c2600083018461191f565b92915050565b6000602082840312156119de576119dd610b52565b5b60006119ec8482850161183e565b9150509291505056fea264697066735822122019b2af747bf741e479f88383c7af3cb16271458294f0d422f5cd0866ff7a951e64736f6c634300081a0033",
  "linkReferences": {},
  "deployedLinkReferences": {}
}