{
  "_format": "hh-sol-artifact-1",
  "contractName": "KeeganSwap",
  "sourceName": "contracts/Keeganswap.sol",
  "abi": [
    {
      "inputs": [],
      "stateMutability": "nonpayable",
      "type": "constructor"
    },
    {
      "inputs": [
        {
          "internalType": "address",
          "name": "pool0",
          "type": "address"
        },
        {
          "internalType": "uint24",
          "name": "fee1",
          "type": "uint24"
        },
        {
          "internalType": "address",
          "name": "tokenIn",
          "type": "address"
        },
        {
          "internalType": "address",
          "name": "tokenOut",
          "type": "address"
        },
        {
          "internalType": "uint256",
          "name": "amountIn",
          "type": "uint256"
        }
      ],
      "name": "check",
      "outputs": [
        {
          "internalType": "int256",
          "name": "profit",
          "type": "int256"
        },
        {
          "internalType": "uint256",
          "name": "buyBackAmount",
          "type": "uint256"
        }
      ],
      "stateMutability": "nonpayable",
      "type": "function"
    },
    {
      "inputs": [
        {
          "internalType": "address",
          "name": "pool0",
          "type": "address"
        },
        {
          "internalType": "uint24",
          "name": "fee1",
          "type": "uint24"
        },
        {
          "internalType": "address",
          "name": "tokenIn",
          "type": "address"
        },
        {
          "internalType": "address",
          "name": "tokenOut",
          "type": "address"
        },
        {
          "internalType": "uint256",
          "name": "amountIn",
          "type": "uint256"
        }
      ],
      "name": "flashSwap",
      "outputs": [],
      "stateMutability": "nonpayable",
      "type": "function"
    },
    {
      "inputs": [],
      "name": "owner",
      "outputs": [
        {
          "internalType": "address",
          "name": "",
          "type": "address"
        }
      ],
      "stateMutability": "view",
      "type": "function"
    },
    {
      "inputs": [],
      "name": "quoter",
      "outputs": [
        {
          "internalType": "contract IQuoterV2",
          "name": "",
          "type": "address"
        }
      ],
      "stateMutability": "view",
      "type": "function"
    },
    {
      "inputs": [],
      "name": "router",
      "outputs": [
        {
          "internalType": "contract ISwapRouter02",
          "name": "",
          "type": "address"
        }
      ],
      "stateMutability": "view",
      "type": "function"
    },
    {
      "inputs": [
        {
          "internalType": "int256",
          "name": "amount0",
          "type": "int256"
        },
        {
          "internalType": "int256",
          "name": "amount1",
          "type": "int256"
        },
        {
          "internalType": "bytes",
          "name": "data",
          "type": "bytes"
        }
      ],
      "name": "uniswapV3SwapCallback",
      "outputs": [],
      "stateMutability": "nonpayable",
      "type": "function"
    }
  ],
  "bytecode": "0x60c060405234801561001057600080fd5b50336000806101000a81548173ffffffffffffffffffffffffffffffffffffffff021916908373ffffffffffffffffffffffffffffffffffffffff16021790555073a1f56f72b0320179b01a947a5f78678e8f96f8ec73ffffffffffffffffffffffffffffffffffffffff1660808173ffffffffffffffffffffffffffffffffffffffff168152505073de43abe37ab3b5202c22422795a527151d65eb1873ffffffffffffffffffffffffffffffffffffffff1660a08173ffffffffffffffffffffffffffffffffffffffff168152505060805160a05161145f610122600039600081816103000152818161042201526104ec0152600081816105100152818161070f0152610827015261145f6000f3fe608060405234801561001057600080fd5b50600436106100625760003560e01c806348368ae8146100675780638da5cb5b14610083578063ae5dd82b146100a1578063c6bbd5a7146100d2578063f887ea40146100f0578063fa461e331461010e575b600080fd5b610081600480360381019061007c91906109a6565b61012a565b005b61008b61025e565b6040516100989190610a30565b60405180910390f35b6100bb60048036038101906100b691906109a6565b610282565b6040516100c9929190610a73565b60405180910390f35b6100da6104ea565b6040516100e79190610afb565b60405180910390f35b6100f861050e565b6040516101059190610b37565b60405180910390f35b61012860048036038101906101239190610be3565b610532565b005b60008273ffffffffffffffffffffffffffffffffffffffff168473ffffffffffffffffffffffffffffffffffffffff1610905060008161018a57600173fffd8963efd1fc6a506488495d951d5263988d266101859190610c86565b61019d565b60016401000276a361019c9190610cce565b5b90506000338888888888886040516020016101be9796959493929190610d40565b60405160208183030381529060405290508773ffffffffffffffffffffffffffffffffffffffff1663128acb0830858786866040518663ffffffff1660e01b8152600401610210959493929190610e4e565b60408051808303816000875af115801561022e573d6000803e3d6000fd5b505050506040513d601f19601f820116820180604052508101906102529190610ebd565b50505050505050505050565b60008054906101000a900473ffffffffffffffffffffffffffffffffffffffff1681565b60008060006040518060a001604052808773ffffffffffffffffffffffffffffffffffffffff1681526020018673ffffffffffffffffffffffffffffffffffffffff1681526020018581526020018862ffffff168152602001600073ffffffffffffffffffffffffffffffffffffffff1681525090506000806000807f000000000000000000000000000000000000000000000000000000000000000073ffffffffffffffffffffffffffffffffffffffff1663c6a5026a866040518263ffffffff1660e01b81526004016103579190610fa1565b6080604051808303816000875af1158015610376573d6000803e3d6000fd5b505050506040513d601f19601f8201168201806040525081019061039a9190611039565b935093509350935060008b905060006040518060a001604052808c73ffffffffffffffffffffffffffffffffffffffff1681526020018d73ffffffffffffffffffffffffffffffffffffffff1681526020018781526020018362ffffff168152602001600073ffffffffffffffffffffffffffffffffffffffff1681525090506000806000807f000000000000000000000000000000000000000000000000000000000000000073ffffffffffffffffffffffffffffffffffffffff1663c6a5026a866040518263ffffffff1660e01b81526004016104799190610fa1565b6080604051808303816000875af1158015610498573d6000803e3d6000fd5b505050506040513d601f19601f820116820180604052508101906104bc9190611039565b93509350935093508d846104d091906110a0565b9c50899b5050505050505050505050509550959350505050565b7f000000000000000000000000000000000000000000000000000000000000000081565b7f000000000000000000000000000000000000000000000000000000000000000081565b6000806000806000806000888881019061054c919061114d565b9650965096509650965096509650600081610570578b61056b906111ef565b61057b565b8a61057a906111ef565b5b9050600061058c85878985886106ef565b90506000848261059c9190611237565b9050600081116105e1576040517f08c379a00000000000000000000000000000000000000000000000000000000081526004016105d8906112c8565b60405180910390fd5b8673ffffffffffffffffffffffffffffffffffffffff1663a9059cbb8a876040518363ffffffff1660e01b815260040161061c9291906112e8565b6020604051808303816000875af115801561063b573d6000803e3d6000fd5b505050506040513d601f19601f8201168201806040525081019061065f9190611326565b508673ffffffffffffffffffffffffffffffffffffffff1663a9059cbb8b836040518363ffffffff1660e01b815260040161069b9291906112e8565b6020604051808303816000875af11580156106ba573d6000803e3d6000fd5b505050506040513d601f19601f820116820180604052508101906106de9190611326565b505050505050505050505050505050565b60008573ffffffffffffffffffffffffffffffffffffffff1663095ea7b37f0000000000000000000000000000000000000000000000000000000000000000856040518363ffffffff1660e01b815260040161074c9291906112e8565b6020604051808303816000875af115801561076b573d6000803e3d6000fd5b505050506040513d601f19601f8201168201806040525081019061078f9190611326565b5060006040518060e001604052808873ffffffffffffffffffffffffffffffffffffffff1681526020018773ffffffffffffffffffffffffffffffffffffffff1681526020018662ffffff1681526020013073ffffffffffffffffffffffffffffffffffffffff168152602001858152602001848152602001600073ffffffffffffffffffffffffffffffffffffffff1681525090507f000000000000000000000000000000000000000000000000000000000000000073ffffffffffffffffffffffffffffffffffffffff166304e45aaf826040518263ffffffff1660e01b815260040161087e91906113e1565b6020604051808303816000875af115801561089d573d6000803e3d6000fd5b505050506040513d601f19601f820116820180604052508101906108c191906113fc565b91505095945050505050565b600080fd5b600080fd5b600073ffffffffffffffffffffffffffffffffffffffff82169050919050565b6000610902826108d7565b9050919050565b610912816108f7565b811461091d57600080fd5b50565b60008135905061092f81610909565b92915050565b600062ffffff82169050919050565b61094d81610935565b811461095857600080fd5b50565b60008135905061096a81610944565b92915050565b6000819050919050565b61098381610970565b811461098e57600080fd5b50565b6000813590506109a08161097a565b92915050565b600080600080600060a086880312156109c2576109c16108cd565b5b60006109d088828901610920565b95505060206109e18882890161095b565b94505060406109f288828901610920565b9350506060610a0388828901610920565b9250506080610a1488828901610991565b9150509295509295909350565b610a2a816108f7565b82525050565b6000602082019050610a456000830184610a21565b92915050565b6000819050919050565b610a5e81610a4b565b82525050565b610a6d81610970565b82525050565b6000604082019050610a886000830185610a55565b610a956020830184610a64565b9392505050565b6000819050919050565b6000610ac1610abc610ab7846108d7565b610a9c565b6108d7565b9050919050565b6000610ad382610aa6565b9050919050565b6000610ae582610ac8565b9050919050565b610af581610ada565b82525050565b6000602082019050610b106000830184610aec565b92915050565b6000610b2182610ac8565b9050919050565b610b3181610b16565b82525050565b6000602082019050610b4c6000830184610b28565b92915050565b610b5b81610a4b565b8114610b6657600080fd5b50565b600081359050610b7881610b52565b92915050565b600080fd5b600080fd5b600080fd5b60008083601f840112610ba357610ba2610b7e565b5b8235905067ffffffffffffffff811115610bc057610bbf610b83565b5b602083019150836001820283011115610bdc57610bdb610b88565b5b9250929050565b60008060008060608587031215610bfd57610bfc6108cd565b5b6000610c0b87828801610b69565b9450506020610c1c87828801610b69565b935050604085013567ffffffffffffffff811115610c3d57610c3c6108d2565b5b610c4987828801610b8d565b925092505092959194509250565b7f4e487b7100000000000000000000000000000000000000000000000000000000600052601160045260246000fd5b6000610c91826108d7565b9150610c9c836108d7565b9250828203905073ffffffffffffffffffffffffffffffffffffffff811115610cc857610cc7610c57565b5b92915050565b6000610cd9826108d7565b9150610ce4836108d7565b9250828201905073ffffffffffffffffffffffffffffffffffffffff811115610d1057610d0f610c57565b5b92915050565b610d1f81610935565b82525050565b60008115159050919050565b610d3a81610d25565b82525050565b600060e082019050610d55600083018a610a21565b610d626020830189610a21565b610d6f6040830188610d16565b610d7c6060830187610a21565b610d896080830186610a21565b610d9660a0830185610a64565b610da360c0830184610d31565b98975050505050505050565b610db8816108d7565b82525050565b600081519050919050565b600082825260208201905092915050565b60005b83811015610df8578082015181840152602081019050610ddd565b60008484015250505050565b6000601f19601f8301169050919050565b6000610e2082610dbe565b610e2a8185610dc9565b9350610e3a818560208601610dda565b610e4381610e04565b840191505092915050565b600060a082019050610e636000830188610a21565b610e706020830187610d31565b610e7d6040830186610a55565b610e8a6060830185610daf565b8181036080830152610e9c8184610e15565b90509695505050505050565b600081519050610eb781610b52565b92915050565b60008060408385031215610ed457610ed36108cd565b5b6000610ee285828601610ea8565b9250506020610ef385828601610ea8565b9150509250929050565b610f06816108f7565b82525050565b610f1581610970565b82525050565b610f2481610935565b82525050565b610f33816108d7565b82525050565b60a082016000820151610f4f6000850182610efd565b506020820151610f626020850182610efd565b506040820151610f756040850182610f0c565b506060820151610f886060850182610f1b565b506080820151610f9b6080850182610f2a565b50505050565b600060a082019050610fb66000830184610f39565b92915050565b600081519050610fcb8161097a565b92915050565b610fda816108d7565b8114610fe557600080fd5b50565b600081519050610ff781610fd1565b92915050565b600063ffffffff82169050919050565b61101681610ffd565b811461102157600080fd5b50565b6000815190506110338161100d565b92915050565b60008060008060808587031215611053576110526108cd565b5b600061106187828801610fbc565b945050602061107287828801610fe8565b935050604061108387828801611024565b925050606061109487828801610fbc565b91505092959194509250565b60006110ab82610a4b565b91506110b683610a4b565b92508282039050818112600084121682821360008512151617156110dd576110dc610c57565b5b92915050565b60006110ee826108d7565b9050919050565b6110fe816110e3565b811461110957600080fd5b50565b60008135905061111b816110f5565b92915050565b61112a81610d25565b811461113557600080fd5b50565b60008135905061114781611121565b92915050565b600080600080600080600060e0888a03121561116c5761116b6108cd565b5b600061117a8a828b0161110c565b975050602061118b8a828b0161110c565b965050604061119c8a828b0161095b565b95505060606111ad8a828b0161110c565b94505060806111be8a828b0161110c565b93505060a06111cf8a828b01610991565b92505060c06111e08a828b01611138565b91505092959891949750929550565b60006111fa82610a4b565b91507f8000000000000000000000000000000000000000000000000000000000000000820361122c5761122b610c57565b5b816000039050919050565b600061124282610970565b915061124d83610970565b925082820390508181111561126557611264610c57565b5b92915050565b600082825260208201905092915050565b7f70726f666974203d203000000000000000000000000000000000000000000000600082015250565b60006112b2600a8361126b565b91506112bd8261127c565b602082019050919050565b600060208201905081810360008301526112e1816112a5565b9050919050565b60006040820190506112fd6000830185610a21565b61130a6020830184610a64565b9392505050565b60008151905061132081611121565b92915050565b60006020828403121561133c5761133b6108cd565b5b600061134a84828501611311565b91505092915050565b60e0820160008201516113696000850182610efd565b50602082015161137c6020850182610efd565b50604082015161138f6040850182610f1b565b5060608201516113a26060850182610efd565b5060808201516113b56080850182610f0c565b5060a08201516113c860a0850182610f0c565b5060c08201516113db60c0850182610f2a565b50505050565b600060e0820190506113f66000830184611353565b92915050565b600060208284031215611412576114116108cd565b5b600061142084828501610fbc565b9150509291505056fea2646970667358221220bf97c69cb3915517041c1e3cef61516504f2168028ce6226e9f7892fc6dda9ee64736f6c634300081a0033",
  "linkReferences": {},
  "deployedLinkReferences": {}
}